{
  "_format": "hh-sol-artifact-1",
  "contractName": "Raffle",
  "sourceName": "contracts/Raffle.sol",
  "abi": [
    {
      "inputs": [
        {
          "internalType": "address",
          "name": "vrfCoordinatorV2",
          "type": "address"
        },
        {
          "internalType": "uint256",
          "name": "entranceFee",
          "type": "uint256"
        },
        {
          "internalType": "bytes32",
          "name": "gasLane",
          "type": "bytes32"
        },
        {
          "internalType": "uint64",
          "name": "subscriptionId",
          "type": "uint64"
        },
        {
          "internalType": "uint32",
          "name": "callbackGasLimit",
          "type": "uint32"
        },
        {
          "internalType": "uint256",
          "name": "interval",
          "type": "uint256"
        }
      ],
      "stateMutability": "nonpayable",
      "type": "constructor"
    },
    {
      "inputs": [
        {
          "internalType": "address",
          "name": "have",
          "type": "address"
        },
        {
          "internalType": "address",
          "name": "want",
          "type": "address"
        }
      ],
      "name": "OnlyCoordinatorCanFulfill",
      "type": "error"
    },
    {
      "inputs": [],
      "name": "Raffle__NotEnoughETHEntered",
      "type": "error"
    },
    {
      "inputs": [],
      "name": "Raffle__NotOpen",
      "type": "error"
    },
    {
      "inputs": [],
      "name": "Raffle__TransferFailed",
      "type": "error"
    },
    {
      "inputs": [
        {
          "internalType": "uint256",
          "name": "currentBalance",
          "type": "uint256"
        },
        {
          "internalType": "uint256",
          "name": "numPlayers",
          "type": "uint256"
        },
        {
          "internalType": "uint256",
          "name": "raffleState",
          "type": "uint256"
        }
      ],
      "name": "Raffle__UpkeepNotNeeded",
      "type": "error"
    },
    {
      "anonymous": false,
      "inputs": [
        {
          "indexed": true,
          "internalType": "address",
          "name": "player",
          "type": "address"
        }
      ],
      "name": "RaffleEnter",
      "type": "event"
    },
    {
      "anonymous": false,
      "inputs": [
        {
          "indexed": true,
          "internalType": "uint256",
          "name": "requestedId",
          "type": "uint256"
        }
      ],
      "name": "RequestedRaffleWinner",
      "type": "event"
    },
    {
      "anonymous": false,
      "inputs": [
        {
          "indexed": true,
          "internalType": "address",
          "name": "winner",
          "type": "address"
        }
      ],
      "name": "WinnerPicked",
      "type": "event"
    },
    {
      "inputs": [
        {
          "internalType": "bytes",
          "name": "",
          "type": "bytes"
        }
      ],
      "name": "checkUpkeep",
      "outputs": [
        {
          "internalType": "bool",
          "name": "upkeepNeeded",
          "type": "bool"
        },
        {
          "internalType": "bytes",
          "name": "",
          "type": "bytes"
        }
      ],
      "stateMutability": "nonpayable",
      "type": "function"
    },
    {
      "inputs": [],
      "name": "enterRaffle",
      "outputs": [],
      "stateMutability": "payable",
      "type": "function"
    },
    {
      "inputs": [],
      "name": "getEntranceFee",
      "outputs": [
        {
          "internalType": "uint256",
          "name": "",
          "type": "uint256"
        }
      ],
      "stateMutability": "view",
      "type": "function"
    },
    {
      "inputs": [],
      "name": "getLastTimeStamp",
      "outputs": [
        {
          "internalType": "uint256",
          "name": "",
          "type": "uint256"
        }
      ],
      "stateMutability": "view",
      "type": "function"
    },
    {
      "inputs": [],
      "name": "getNumWords",
      "outputs": [
        {
          "internalType": "uint256",
          "name": "",
          "type": "uint256"
        }
      ],
      "stateMutability": "pure",
      "type": "function"
    },
    {
      "inputs": [],
      "name": "getNumberOfPlayers",
      "outputs": [
        {
          "internalType": "uint256",
          "name": "",
          "type": "uint256"
        }
      ],
      "stateMutability": "view",
      "type": "function"
    },
    {
      "inputs": [
        {
          "internalType": "uint256",
          "name": "index",
          "type": "uint256"
        }
      ],
      "name": "getPlayer",
      "outputs": [
        {
          "internalType": "address",
          "name": "",
          "type": "address"
        }
      ],
      "stateMutability": "view",
      "type": "function"
    },
    {
      "inputs": [],
      "name": "getRaffleState",
      "outputs": [
        {
          "internalType": "enum Raffle.RaffleState",
          "name": "",
          "type": "uint8"
        }
      ],
      "stateMutability": "view",
      "type": "function"
    },
    {
      "inputs": [],
      "name": "getRecentWinner",
      "outputs": [
        {
          "internalType": "address",
          "name": "",
          "type": "address"
        }
      ],
      "stateMutability": "view",
      "type": "function"
    },
    {
      "inputs": [],
      "name": "getRequestConfirmations",
      "outputs": [
        {
          "internalType": "uint256",
          "name": "",
          "type": "uint256"
        }
      ],
      "stateMutability": "pure",
      "type": "function"
    },
    {
      "inputs": [
        {
          "internalType": "bytes",
          "name": "",
          "type": "bytes"
        }
      ],
      "name": "performUpkeep",
      "outputs": [],
      "stateMutability": "nonpayable",
      "type": "function"
    },
    {
      "inputs": [
        {
          "internalType": "uint256",
          "name": "requestId",
          "type": "uint256"
        },
        {
          "internalType": "uint256[]",
          "name": "randomWords",
          "type": "uint256[]"
        }
      ],
      "name": "rawFulfillRandomWords",
      "outputs": [],
      "stateMutability": "nonpayable",
      "type": "function"
    }
  ],
  "bytecode": "0x6101606040523480156200001257600080fd5b50604051620017c6380380620017c6833981810160405281019062000038919062000294565b858073ffffffffffffffffffffffffffffffffffffffff1660808173ffffffffffffffffffffffffffffffffffffffff1681525050508460a081815250508573ffffffffffffffffffffffffffffffffffffffff1660c08173ffffffffffffffffffffffffffffffffffffffff16815250508360e081815250508267ffffffffffffffff166101008167ffffffffffffffff16815250508163ffffffff166101208163ffffffff16815250506000600160146101000a81548160ff021916908360018111156200010d576200010c62000330565b5b0217905550426002819055508061014081815250505050505050506200035f565b600080fd5b600073ffffffffffffffffffffffffffffffffffffffff82169050919050565b6000620001608262000133565b9050919050565b620001728162000153565b81146200017e57600080fd5b50565b600081519050620001928162000167565b92915050565b6000819050919050565b620001ad8162000198565b8114620001b957600080fd5b50565b600081519050620001cd81620001a2565b92915050565b6000819050919050565b620001e881620001d3565b8114620001f457600080fd5b50565b6000815190506200020881620001dd565b92915050565b600067ffffffffffffffff82169050919050565b6200022d816200020e565b81146200023957600080fd5b50565b6000815190506200024d8162000222565b92915050565b600063ffffffff82169050919050565b6200026e8162000253565b81146200027a57600080fd5b50565b6000815190506200028e8162000263565b92915050565b60008060008060008060c08789031215620002b457620002b36200012e565b5b6000620002c489828a0162000181565b9650506020620002d789828a01620001bc565b9550506040620002ea89828a01620001f7565b9450506060620002fd89828a016200023c565b93505060806200031089828a016200027d565b92505060a06200032389828a01620001bc565b9150509295509295509295565b7f4e487b7100000000000000000000000000000000000000000000000000000000600052602160045260246000fd5b60805160a05160c05160e0516101005161012051610140516113fe620003c86000396000610795015260006106550152600061063201526000610611015260006105d50152600081816102b401526103b10152600081816102f1015261034501526113fe6000f3fe6080604052600436106100a75760003560e01c806353a2c19a1161006457806353a2c19a146101895780635f1b0fd8146101b45780636e04ff0d146101df578063c1c244e81461021d578063e55ae4e814610248578063fd6673f514610285576100a7565b806309bc33a7146100ac578063115cbaf5146100d75780631fe543e3146101025780632cfcc5391461012b5780634585e33b14610135578063473f1ddc1461015e575b600080fd5b3480156100b857600080fd5b506100c16102b0565b6040516100ce9190610b4d565b60405180910390f35b3480156100e357600080fd5b506100ec6102d8565b6040516100f99190610bdf565b60405180910390f35b34801561010e57600080fd5b5061012960048036038101906101249190610d93565b6102ef565b005b6101336103af565b005b34801561014157600080fd5b5061015c60048036038101906101579190610e4a565b61051e565b005b34801561016a57600080fd5b5061017361070e565b6040516101809190610ed8565b60405180910390f35b34801561019557600080fd5b5061019e610738565b6040516101ab9190610b4d565b60405180910390f35b3480156101c057600080fd5b506101c9610745565b6040516101d69190610b4d565b60405180910390f35b3480156101eb57600080fd5b5061020660048036038101906102019190610fa8565b610752565b60405161021492919061108b565b60405180910390f35b34801561022957600080fd5b506102326107ff565b60405161023f9190610b4d565b60405180910390f35b34801561025457600080fd5b5061026f600480360381019061026a91906110bb565b610809565b60405161027c9190610ed8565b60405180910390f35b34801561029157600080fd5b5061029a610850565b6040516102a79190610b4d565b60405180910390f35b60007f0000000000000000000000000000000000000000000000000000000000000000905090565b6000600160149054906101000a900460ff16905090565b7f000000000000000000000000000000000000000000000000000000000000000073ffffffffffffffffffffffffffffffffffffffff163373ffffffffffffffffffffffffffffffffffffffff16146103a157337f00000000000000000000000000000000000000000000000000000000000000006040517f1cf993f40000000000000000000000000000000000000000000000000000000081526004016103989291906110e8565b60405180910390fd5b6103ab828261085c565b5050565b7f0000000000000000000000000000000000000000000000000000000000000000341015610409576040517fbd4e069500000000000000000000000000000000000000000000000000000000815260040160405180910390fd5b6000600181111561041d5761041c610b68565b5b600160149054906101000a900460ff16600181111561043f5761043e610b68565b5b14610476576040517f1425571c00000000000000000000000000000000000000000000000000000000815260040160405180910390fd5b6000339080600181540180825580915050600190039060005260206000200160009091909190916101000a81548173ffffffffffffffffffffffffffffffffffffffff021916908373ffffffffffffffffffffffffffffffffffffffff1602179055503373ffffffffffffffffffffffffffffffffffffffff167f0805e1d667bddb8a95f0f09880cf94f403fb596ce79928d9f29b74203ba284d460405160405180910390a2565b600061053860405180602001604052806000815250610752565b509050806105a75747600080549050600160149054906101000a900460ff16600181111561056957610568610b68565b5b6040517f584327aa00000000000000000000000000000000000000000000000000000000815260040161059e93929190611111565b60405180910390fd5b60018060146101000a81548160ff021916908360018111156105cc576105cb610b68565b5b021790555060007f000000000000000000000000000000000000000000000000000000000000000073ffffffffffffffffffffffffffffffffffffffff16635d3b1d307f00000000000000000000000000000000000000000000000000000000000000007f000000000000000000000000000000000000000000000000000000000000000060037f000000000000000000000000000000000000000000000000000000000000000060016040518663ffffffff1660e01b81526004016106969594939291906111fb565b6020604051808303816000875af11580156106b5573d6000803e3d6000fd5b505050506040513d601f19601f820116820180604052508101906106d99190611263565b9050807fcd6e45c8998311cab7e9d4385596cac867e20a0587194b954fa3a731c93ce78b60405160405180910390a250505050565b6000600160009054906101000a900473ffffffffffffffffffffffffffffffffffffffff16905090565b6000600161ffff16905090565b6000600361ffff16905090565b600060606000600160149054906101000a900460ff16600181111561077a57610779610b68565b5b6000600181111561078e5761078d610b68565b5b14905060007f0000000000000000000000000000000000000000000000000000000000000000600254426107c291906112bf565b119050600080600080549050119050600080471190508380156107e25750825b80156107eb5750815b80156107f45750805b955050505050915091565b6000600254905090565b600080828154811061081e5761081d6112f3565b5b9060005260206000200160009054906101000a900473ffffffffffffffffffffffffffffffffffffffff169050919050565b60008080549050905090565b6000808054905082600081518110610877576108766112f3565b5b60200260200101516108899190611351565b905060008082815481106108a05761089f6112f3565b5b9060005260206000200160009054906101000a900473ffffffffffffffffffffffffffffffffffffffff16905080600160006101000a81548173ffffffffffffffffffffffffffffffffffffffff021916908373ffffffffffffffffffffffffffffffffffffffff1602179055506000600160146101000a81548160ff0219169083600181111561093457610933610b68565b5b021790555042600281905550600067ffffffffffffffff81111561095b5761095a610c50565b5b6040519080825280602002602001820160405280156109895781602001602082028036833780820191505090505b506000908051906020019061099f929190610a8d565b5060008173ffffffffffffffffffffffffffffffffffffffff16476040516109c6906113b3565b60006040518083038185875af1925050503d8060008114610a03576040519150601f19603f3d011682016040523d82523d6000602084013e610a08565b606091505b5050905080610a43576040517fa1d04b3900000000000000000000000000000000000000000000000000000000815260040160405180910390fd5b8173ffffffffffffffffffffffffffffffffffffffff167f5b690ec4a06fe979403046eaeea5b3ce38524683c3001f662c8b5a829632f7df60405160405180910390a25050505050565b828054828255906000526020600020908101928215610b06579160200282015b82811115610b055782518260006101000a81548173ffffffffffffffffffffffffffffffffffffffff021916908373ffffffffffffffffffffffffffffffffffffffff16021790555091602001919060010190610aad565b5b509050610b139190610b17565b5090565b5b80821115610b30576000816000905550600101610b18565b5090565b6000819050919050565b610b4781610b34565b82525050565b6000602082019050610b626000830184610b3e565b92915050565b7f4e487b7100000000000000000000000000000000000000000000000000000000600052602160045260246000fd5b60028110610ba857610ba7610b68565b5b50565b6000819050610bb982610b97565b919050565b6000610bc982610bab565b9050919050565b610bd981610bbe565b82525050565b6000602082019050610bf46000830184610bd0565b92915050565b6000604051905090565b600080fd5b600080fd5b610c1781610b34565b8114610c2257600080fd5b50565b600081359050610c3481610c0e565b92915050565b600080fd5b6000601f19601f8301169050919050565b7f4e487b7100000000000000000000000000000000000000000000000000000000600052604160045260246000fd5b610c8882610c3f565b810181811067ffffffffffffffff82111715610ca757610ca6610c50565b5b80604052505050565b6000610cba610bfa565b9050610cc68282610c7f565b919050565b600067ffffffffffffffff821115610ce657610ce5610c50565b5b602082029050602081019050919050565b600080fd5b6000610d0f610d0a84610ccb565b610cb0565b90508083825260208201905060208402830185811115610d3257610d31610cf7565b5b835b81811015610d5b5780610d478882610c25565b845260208401935050602081019050610d34565b5050509392505050565b600082601f830112610d7a57610d79610c3a565b5b8135610d8a848260208601610cfc565b91505092915050565b60008060408385031215610daa57610da9610c04565b5b6000610db885828601610c25565b925050602083013567ffffffffffffffff811115610dd957610dd8610c09565b5b610de585828601610d65565b9150509250929050565b600080fd5b60008083601f840112610e0a57610e09610c3a565b5b8235905067ffffffffffffffff811115610e2757610e26610def565b5b602083019150836001820283011115610e4357610e42610cf7565b5b9250929050565b60008060208385031215610e6157610e60610c04565b5b600083013567ffffffffffffffff811115610e7f57610e7e610c09565b5b610e8b85828601610df4565b92509250509250929050565b600073ffffffffffffffffffffffffffffffffffffffff82169050919050565b6000610ec282610e97565b9050919050565b610ed281610eb7565b82525050565b6000602082019050610eed6000830184610ec9565b92915050565b600080fd5b600067ffffffffffffffff821115610f1357610f12610c50565b5b610f1c82610c3f565b9050602081019050919050565b82818337600083830152505050565b6000610f4b610f4684610ef8565b610cb0565b905082815260208101848484011115610f6757610f66610ef3565b5b610f72848285610f29565b509392505050565b600082601f830112610f8f57610f8e610c3a565b5b8135610f9f848260208601610f38565b91505092915050565b600060208284031215610fbe57610fbd610c04565b5b600082013567ffffffffffffffff811115610fdc57610fdb610c09565b5b610fe884828501610f7a565b91505092915050565b60008115159050919050565b61100681610ff1565b82525050565b600081519050919050565b600082825260208201905092915050565b60005b8381101561104657808201518184015260208101905061102b565b60008484015250505050565b600061105d8261100c565b6110678185611017565b9350611077818560208601611028565b61108081610c3f565b840191505092915050565b60006040820190506110a06000830185610ffd565b81810360208301526110b28184611052565b90509392505050565b6000602082840312156110d1576110d0610c04565b5b60006110df84828501610c25565b91505092915050565b60006040820190506110fd6000830185610ec9565b61110a6020830184610ec9565b9392505050565b60006060820190506111266000830186610b3e565b6111336020830185610b3e565b6111406040830184610b3e565b949350505050565b6000819050919050565b61115b81611148565b82525050565b600067ffffffffffffffff82169050919050565b61117e81611161565b82525050565b600061ffff82169050919050565b61119b81611184565b82525050565b600063ffffffff82169050919050565b6111ba816111a1565b82525050565b6000819050919050565b60006111e56111e06111db84611184565b6111c0565b6111a1565b9050919050565b6111f5816111ca565b82525050565b600060a0820190506112106000830188611152565b61121d6020830187611175565b61122a6040830186611192565b61123760608301856111b1565b61124460808301846111ec565b9695505050505050565b60008151905061125d81610c0e565b92915050565b60006020828403121561127957611278610c04565b5b60006112878482850161124e565b91505092915050565b7f4e487b7100000000000000000000000000000000000000000000000000000000600052601160045260246000fd5b60006112ca82610b34565b91506112d583610b34565b92508282039050818111156112ed576112ec611290565b5b92915050565b7f4e487b7100000000000000000000000000000000000000000000000000000000600052603260045260246000fd5b7f4e487b7100000000000000000000000000000000000000000000000000000000600052601260045260246000fd5b600061135c82610b34565b915061136783610b34565b92508261137757611376611322565b5b828206905092915050565b600081905092915050565b50565b600061139d600083611382565b91506113a88261138d565b600082019050919050565b60006113be82611390565b915081905091905056fea2646970667358221220bc2c604bfa007449028e992af91af458b5cc780cf4870996215dff01abd4524364736f6c63430008110033",
  "linkReferences": {},
  "deployedLinkReferences": {}
}